:107000000C943E380C9450380C9450380C945038F2
:107010000C9450380C9450380C9450380C945038D0
:107020000C9450380C9450380C9450380C945038C0
:107030000C9450380C9450380C9450380C945038B0
:107040000C9450380C9450380C9450380C945038A0
:107050000C9450380C9450380C9450380C94503890
:107060000C9450380C9450380C9450380C94503880
:107070000C9450380C9450380C94503811241FBE86
:10708000CFEFD8E0DEBFCDBF12E0A0E0B1E001C09D
:107090001D92A930B107E1F70E9426390C94183CE3
:1070A0000C940038279A2F9AE0910101F091020187
:1070B00009950895282F992787FD9095807F9070D6
:1070C00034E0959587953A95E1F78A301CF0382F92
:1070D000395A02C0382F305D822F8F708A301CF0F1
:1070E000982F995A02C0982F905D8091C00085FF1B
:1070F000FCCF3093C6008091C00085FFFCCF9093F9
:10710000C6000895982F8091C00085FFFCCF909312
:10711000C6000895EF92FF920F931F932F98EE24CD
:10712000FF24870110C00894E11CF11C011D111DF2
:1071300081E2E81681EAF80687E0080780E0180790
:1071400010F00E9452388091C00087FFECCF2F9A38
:107150008091C6001F910F91FF90EF9008951F93AB
:107160000E948A38182F8091C00085FFFCCF1093B1
:10717000C6000E948A38982F8091C00085FFFCCFFE
:107180009093C600113614F0175503C010330CF05D
:107190001053913614F0975503C090330CF0905370
:1071A0001295107F892F810F1F910895282F90E04D
:1071B00007C08091C00087FFFCCF8091C6009F5F11
:1071C0009217B8F308951F93182F0E948A388032BF
:1071D000A9F48091C00085FFFCCF84E18093C600B4
:1071E0008091C00085FFFCCF1093C6008091C00045
:1071F00085FFFCCF80E18093C60009C0809100012B
:107200008F5F80930001853011F40E9452381F91E6
:1072100008950E948A38803279F48091C00085FFF9
:10722000FCCF84E18093C6008091C00085FFFCCF35
:1072300080E18093C6000895809100018F5F809364
:107240000001853011F40E94523808954F925F92E8
:107250006F927F928F929F92AF92BF92CF92DF9266
:10726000EF92FF920F931F93CF93DF93000094B799
:1072700014BE80916000886180936000109260006D
:1072800091FD02C00E94523880E18093C4001092A8
:10729000C50048E14093C10096E09093C200509829
:1072A000589A279A3C98449A579A5F983B9A4398E1
:1072B000349936C08091C00082608093C00020E184
:1072C00030E03093C5002093C4004093C1009093F8
:1072D000C2008091C80082608093C8003093CD00C6
:1072E0002093CC004093C9009093CA00439A5F9AC0
:1072F0005F988091C00087FF07C08091C60080938F
:10730000CE0085B1805885B98091C80087FFF1CF44
:107310008091CE008093C60085B1805885B9E9CFB1
:107320005F9A5F9844983C9843983B985F98579829
:1073300034E1E32E2EE1922E95E9892E81E1782E1B
:1073400000E1F02E11E4612EB6E55B2EA2E54A2E97
:10735000F0E2DF2EE9E4CE2E73E5B72E60E5A62E2F
:107360000E948A38803309F48BC08133D1F50E94A2
:107370008A38803209F0EEC18091C00085FFFCCFD1
:10738000E092C6008091C00085FFFCCF6092C600ED
:107390008091C00085FFFCCF5092C6008091C00054
:1073A00085FFFCCF4092C6008091C00085FFFCCFD6
:1073B000D092C6008091C00085FFFCCFC092C6006D
:1073C0008091C00085FFFCCFB092C6008091C000C4
:1073D00085FFFCCFA092C6008091C00085FFFCCF46
:1073E000B0C1803441F40E948A38863808F448C01D
:1073F0000E948A3845C0813499F40E948A388038C6
:1074000011F482E0A4C1813811F481E0A0C1823876
:1074100011F480E19CC1883909F098C183E097C1DB
:10742000823459F490E08091C00087FFFCCF8091B6
:10743000C6009F5F9431B9F723C0853459F490E0BA
:107440008091C00087FFFCCF8091C6009F5F953080
:10745000B9F716C08035A1F0813531F40E940939A1
:1074600088E080936000FFCF823551F0853559F474
:107470000E948A38809303010E948A388093040115
:107480000E9409396DCF863559F490E08091C00093
:1074900087FFFCCF8091C6009F5F9430B9F756C13B
:1074A000843609F0C6C00E948A38809306020E9482
:1074B0008A3880930502809108028E7F80930802AB
:1074C0000E948A38853429F4809108028160809373
:1074D0000802E5E0F1E0119281E0E534F807D9F720
:1074E00000E010E008C00E948A38F801EB5FFE4F10
:1074F00080830F5F1F4F809105029091060208174D
:10750000190788F30E948A38803209F023C18091DC
:107510000802209103013091040180FF21C0609195
:1075200005027091060240E050E010C0F999FECFCC
:10753000CA01820F931F92BD81BDFA01EB5FFE4F1E
:10754000808180BDFA9AF99A4F5F5F4F46175707BF
:1075500068F3260F371F30930401209303015EC0A8
:10756000220F331F30930401209303018091050201
:1075700080FF09C0809105029091060201969093C8
:10758000060280930502F999FECF1127E0910301CD
:10759000F0910401C5E0D1E08091050290910602CE
:1075A000103091F40091570001700130D9F303E0DD
:1075B00000935700E8950091570001700130D9F30E
:1075C00001E100935700E895099019900091570048
:1075D00001700130D9F301E000935700E89513954D
:1075E000103498F011270091570001700130D9F341
:1075F00005E000935700E8950091570001700130B5
:10760000D9F301E100935700E8953296029709F00B
:10761000C7CF103011F00296E5CF11248091C00041
:1076200085FFFCCFE092C6008091C00085FFFCCFB3
:1076300088C0843709F063C00E948A3880930602AC
:107640000E948A38809305020E948A38909108022D
:10765000853421F49160909308020DC09E7F909331
:1076600008028091030190910401880F991F909363
:107670000401809303010E948A38803209F070CEA1
:107680008091C00085FFFCCFE092C60060910502AA
:107690007091060280910802B82FB170A82FA270D5
:1076A0002091030130910401F90140E050E019C03C
:1076B000BB2359F0F999FECFF2BDE1BDF89A90B520
:1076C0008091C00085FFFCCF07C0AA2339F49491B4
:1076D0008091C00085FFFCCF9093C6004F5F5F4F45
:1076E00031964617570720F3260F371F30930401B2
:1076F000209303018091C00085FFFCCF22C0853715
:1077000019F50E948A38803229F58091C00085FFE2
:10771000FCCFE092C6008091C00085FFFCCF909224
:10772000C6008091C00085FFFCCF8092C60080918A
:10773000C00085FFFCCF7092C6008091C00085FF1D
:10774000FCCFF092C6000CCE863721F480E00E9478
:10775000E33806CE809100018F5F80930001853071
:1077600009F0FECD0E945238FBCDDF93CF9300D0BD
:1077700000D0CDB7DEB7382F882309F431E020E000
:1077800035C02F9A19821A821B821C820BC08981F4
:107790009A81AB81BC810196A11DB11D89839A8319
:1077A000AB83BC8389819A81AB81BC8180589E4325
:1077B000A040B04060F32F9819821A821B821C826D
:1077C0000BC089819A81AB81BC810196A11DB11D3D
:1077D00089839A83AB83BC8389819A81AB81BC8185
:1077E00080509A4FA040B04060F32F5F231749F6B6
:1077F00019821A821B821C820BC089819A81AB81FB
:10780000BC810196A11DB11D89839A83AB83BC8382
:1078100089819A81AB81BC8180509147A240B04060
:1078200060F30F900F900F900F90CF91DF9108951C
:04783000F894FFCFFA
:040000030000700089
:00000001FF
